{
  "contractName": "Greeting",
  "abi": [
    {
      "constant": false,
      "inputs": [
        {
          "internalType": "string",
          "name": "_strData",
          "type": "string"
        }
      ],
      "name": "setStr",
      "outputs": [],
      "payable": false,
      "stateMutability": "nonpayable",
      "type": "function"
    },
    {
      "constant": true,
      "inputs": [],
      "name": "getStr",
      "outputs": [
        {
          "internalType": "string",
          "name": "",
          "type": "string"
        }
      ],
      "payable": false,
      "stateMutability": "view",
      "type": "function"
    },
    {
      "constant": false,
      "inputs": [
        {
          "internalType": "uint256",
          "name": "_data",
          "type": "uint256"
        }
      ],
      "name": "setData",
      "outputs": [],
      "payable": false,
      "stateMutability": "nonpayable",
      "type": "function"
    },
    {
      "constant": true,
      "inputs": [],
      "name": "getData",
      "outputs": [
        {
          "internalType": "uint256",
          "name": "",
          "type": "uint256"
        }
      ],
      "payable": false,
      "stateMutability": "view",
      "type": "function"
    }
  ],
  "bytecode": "0x608060405234801561001057600080fd5b50610384806100206000396000f3fe608060405234801561001057600080fd5b506004361061004c5760003560e01c8063191347df146100515780633bc5de301461010c5780635b4b73a91461012a578063b8c9e4ed14610158575b600080fd5b61010a6004803603602081101561006757600080fd5b810190808035906020019064010000000081111561008457600080fd5b82018360208201111561009657600080fd5b803590602001918460018302840111640100000000831117156100b857600080fd5b91908080601f016020809104026020016040519081016040528093929190818152602001838380828437600081840152601f19601f8201169050808301925050505050505091929192905050506101db565b005b6101146101f5565b6040518082815260200191505060405180910390f35b6101566004803603602081101561014057600080fd5b81019080803590602001909291905050506101fe565b005b610160610208565b6040518080602001828103825283818151815260200191508051906020019080838360005b838110156101a0578082015181840152602081019050610185565b50505050905090810190601f1680156101cd5780820380516001836020036101000a031916815260200191505b509250505060405180910390f35b80600190805190602001906101f19291906102aa565b5050565b60008054905090565b8060008190555050565b606060018054600181600116156101000203166002900480601f0160208091040260200160405190810160405280929190818152602001828054600181600116156101000203166002900480156102a05780601f10610275576101008083540402835291602001916102a0565b820191906000526020600020905b81548152906001019060200180831161028357829003601f168201915b5050505050905090565b828054600181600116156101000203166002900490600052602060002090601f016020900481019282601f106102eb57805160ff1916838001178555610319565b82800160010185558215610319579182015b828111156103185782518255916020019190600101906102fd565b5b509050610326919061032a565b5090565b61034c91905b80821115610348576000816000905550600101610330565b5090565b9056fea265627a7a72315820c14b9351829c918a3ac6112def0cc1d8d84f175a1daa266ec893a1a9b343519464736f6c63430005100032",
  "source": "pragma solidity ^0.5.0;\n\ncontract Greeting {\n  uint data;\n  string strData;\n\n  function setStr(string memory _strData) public {\n      strData = _strData;\n  }  \n\n  function getStr() view public returns(string memory) {\n      return strData;\n  }\n\n  function setData(uint _data) external {\n  \tdata = _data;\n  }\n\n  function getData() external view returns(uint) {\n  \treturn data;\n  }\n}\n",
  "sourcePath": "/Users/TinaSu/Public/Hackathons/Infura/hello-world/frontend/contracts/Greeting.sol",
  "compiler": {
    "name": "solc",
    "version": "0.5.16+commit.9c3226ce.Emscripten.clang"
  },
  "schemaVersion": "3.0.21",
  "updatedAt": "2020-01-18T17:37:28.436Z",
  "networkType": "ethereum",
  "devdoc": {
    "methods": {}
  },
  "userdoc": {
    "methods": {}
  }
}